:100000000C9455000C946C000C946C000C946C00D7
:100010000C946C000C946C000C946C000C946C00B0
:100020000C946C000C946C000C946C000C946C00A0
:100030000C946C000C946C000C946C000C946C0090
:100040000C946C000C946C000C946C000C946C0080
:100050000C946C000C946C000C946C000C946C0070
:100060000C946C000C946C000C946C000C946C0060
:100070000C946C000C946C000C946C000C946C0050
:100080000C946C000C946C000C946C00E100E1008A
:10009000DE00DE00DB00DB00D800D800D800D50091
:1000A000D500D500D200D200D20011241FBECFEF60
:1000B000D0E4DEBFCDBF11E0A0E0B1E0E2EFF1E0BF
:1000C00000E00BBF02C007900D92AE30B107D9F728
:1000D0000E9497000C94F7000C940000CF93DF93DC
:1000E00000D01F92CDB7DEB789837B836A83898175
:1000F0008A3031F48A819B81BC018DE00E946E00C0
:1001000080EC90E0FC018081882F90E0807299273C
:10011000892BB1F386EC90E02981FC01208380E0FB
:1001200090E00F900F900F90DF91CF910895CF93B3
:10013000DF9300D01F92CDB7DEB781E290E0FC01E3
:10014000108282E290E02FEFFC01208387E290E0B2
:100150002FEFFC01208388E290E0FC01108280E216
:1001600090E0FC01808180958F708B8319821A82C8
:100170008B81853010F480E48A838B81882F90E016
:10018000092E000CAA0BBB0B41E050E02EE030E042
:10019000841B950B28173907C0F08A5B9F4FFC0121
:1001A0000C94EE00898181608983898182608983D2
:1001B000898184608983898188608983898180615C
:1001C000898389818062898301C0000088E290E090
:1001D00039812A81232BFC012083C1CFEE0FFF1F21
:1001E0000024001C0BBE0790F691E02D0994F894B2
:0201F000FFCF3F
:0E01F20000000002000000006E00000000008F
:00000001FF
