:100000000C9464000C9483000C9483000C94830083
:100010000C9483000C9483000C9483000C94830054
:100020000C9483000C9483000C9483000C94830044
:100030000C9483000C9483000C9483000C94830034
:100040000C9483000C9483000C9483000C94830024
:100050000C9483000C9483000C9483000C94830014
:100060000C9483000C9483000C9483000C94830004
:100070000C9483000C9483000C9483000C948300F4
:100080000C9483000C9483000C948300C800D2006D
:10009000DC00E800F40000010A01160122012E0133
:1000A000380142014C015601600188018801880134
:1000B00088018801880188018801880188018801F8
:1000C000880188018801880111241FBECFEFD0E488
:1000D000DEBFCDBF11E0A0E0B1E0EAE9F3E000E06F
:1000E0000BBF02C007900D92AE30B107D9F721E0E7
:1000F000AEE0B1E001C01D92A231B207E1F70E946B
:100100008D010C94CB010C940000CF93DF9300D0B1
:100110001F92CDB7DEB789837B836A8389818A305A
:1001200031F48A819B81BC018DE00E94850080ECC6
:1001300090E0FC018081882F90E080729927892BC4
:10014000B1F386EC90E02981FC01208380E090E00F
:100150000F900F900F90DF91CF910895CF93DF9381
:10016000CDB7DEB780910F0190911001CC01A0E0D6
:10017000B0E040E050E02EE030E0841B950B281703
:10018000390708F4A7C08A5B9F4FFC010C94C20199
:1001900080E18093110181E090E0909310018093C1
:1001A0000F019FC08AE28093110182E090E090935A
:1001B000100180930F0195C080911101809580936B
:1001C000110183E090E09093100180930F0189C0AA
:1001D0008091110180958093110184E090E09093CB
:1001E000100180930F017DC0809111018095809353
:1001F000110185E090E09093100180930F0171C090
:1002000083E38093110186E090E090931001809346
:100210000F0167C08091110180958093110187E0E3
:1002200090E09093100180930F015BC080911101C9
:1002300080958093110188E090E090931001809365
:100240000F014FC08091110180958093110189E0C9
:1002500090E09093100180930F0143C081E0809360
:1002600011018AE090E09093100180930F0139C052
:1002700084E0809311018BE090E0909310018093D3
:100280000F012FC089E0809311018CE090E09093E2
:10029000100180930F0125C084E2809311018DE04D
:1002A00090E09093100180930F011BC089E0809330
:1002B00011018EE090E09093100180930F0111C026
:1002C00084E28093110181E090E09093100180938B
:1002D0000F0107C081E090E09093100180930F011F
:1002E000000080910F0190911001CC01A0E0B0E0DE
:1002F00040E050E02EE030E0841B950B28173907D2
:1003000028F08B5A9F4FFC010C94C201000001C0E1
:1003100000000000DF91CF910895CF93DF93CDB718
:10032000DEB781E290E0FC01108282E290E02FEFE4
:10033000FC01208384E290E02FEFFC01208385E222
:1003400090E0FC01108210921101109210011092A5
:100350000F0180E290E0FC018081882F90E08170A5
:10036000992721E0892B09F020E0822F80930E014C
:100370000E94AE0085E290E0209111012F73FC01F4
:100380002083E7CFEE0FFF1F0024001C0BBE079059
:0A039000F691E02D0994F894FFCFD8
:0E039A000000000200000000850000000000CE
:00000001FF
