:100000000C9446000C9465000C9465000C946500FB
:100010000C9465000C9465000C9465000C946500CC
:100020000C9465000C9465000C9465000C946500BC
:100030000C9465000C9465000C9465000C946500AC
:100040000C9465000C9465000C9465000C9465009C
:100050000C9465000C9465000C9465000C9465008C
:100060000C9465000C9465000C9465000C9465007C
:100070000C9465000C9465000C9465000C9465006C
:100080000C9465000C9465000C94650011241FBE4F
:10009000CFEFD0E4DEBFCDBF11E0A0E0B1E0E6EBF2
:1000A000F3E000E00BBF02C007900D92AE30B10745
:1000B000D9F721E0AEE0B1E001C01D92A331B20753
:1000C000E1F70E9497010C94D9010C940000CF93A2
:1000D000DF9300D01F92CDB7DEB789837B836A831D
:1000E00089818A3031F48A819B81BC018DE00E9434
:1000F000670080EC90E0FC018081882F90E08072A6
:100100009927892BB1F386EC90E02981FC012083AB
:1001100080E090E00F900F900F90DF91CF910895C5
:10012000CF93DF93CDB7DEB780910F01909110018F
:100130008230910521F18330910528F4009779F000
:100140000197A1F0C5C08430910509F485C08430C1
:10015000910508F45BC0059709F4A4C0B9C081E01B
:1001600090E09093100180930F01B9C0109211019B
:1001700082E090E09093100180930F01B0C08091D5
:100180000E01882359F080911201882339F085E00F
:1001900090E09093100180930F0137C080910E0181
:1001A000882359F480911201882339F482E090E089
:1001B0009093100180930F0128C080910E01882335
:1001C000A1F080911201882381F48091110189307E
:1001D00028F4809111018F5F8093110183E090E0FA
:1001E0009093100180930F0110C08091110188231A
:1001F00029F08091110181508093110184E090E0F9
:100200009093100180930F016AC069C080910E0124
:10021000882359F080911201882339F085E090E01D
:100220009093100180930F0116C080910E018823D6
:1002300059F080911201882339F483E090E0909383
:10024000100180930F0107C082E090E090931001AD
:1002500080930F0144C043C080910E01882359F060
:1002600080911201882339F085E090E0909310018D
:1002700080930F0116C080910E01882359F480915C
:100280001201882339F084E090E09093100180936C
:100290000F0107C082E090E09093100180930F015E
:1002A0001EC01DC080910E01882359F48091120157
:1002B000882339F482E090E09093100180930F013D
:1002C0000EC085E090E09093100180930F0107C06D
:1002D00081E090E09093100180930F0100008091E5
:1002E0000F019091100182309105A1F083309105AA
:1002F00028F4009789F0019789F015C084309105A2
:1003000079F08430910570F0059709F00CC01092D7
:10031000110109C0000007C0000005C0000003C0B3
:10032000000001C000000000DF91CF910895CF933D
:10033000DF93CDB7DEB781E290E0FC01108282E26C
:1003400090E02FEFFC01208387E290E02FEFFC018B
:10035000208388E290E0FC0110821092110110923B
:10036000100110920F0180E290E0FC018081882F43
:1003700090E08170992721E0892B09F020E0822FFD
:1003800080930E0180E290E0FC018081882F90E054
:100390008095909582709927959587958093120105
:1003A0000E94900088E290E020911101FC012083DE
:0603B000DACFF894FFCF44
:0E03B6000000000200000000670000000000D0
:00000001FF
